{
  "address": "0x970F4Bf942A465060302efb088D0f7f88B6D4862",
  "abi": [
    {
      "inputs": [
        {
          "internalType": "uint256",
          "name": "numberOfHours",
          "type": "uint256"
        },
        {
          "internalType": "uint256",
          "name": "_minBid",
          "type": "uint256"
        }
      ],
      "stateMutability": "nonpayable",
      "type": "constructor"
    },
    {
      "anonymous": false,
      "inputs": [
        {
          "indexed": false,
          "internalType": "address",
          "name": "sender",
          "type": "address"
        },
        {
          "indexed": false,
          "internalType": "address",
          "name": "withdrawalAccount",
          "type": "address"
        },
        {
          "indexed": false,
          "internalType": "uint256",
          "name": "withdrawalAmount",
          "type": "uint256"
        }
      ],
      "name": "LogWithdrawal",
      "type": "event"
    },
    {
      "anonymous": false,
      "inputs": [],
      "name": "logAuctionCancelled",
      "type": "event"
    },
    {
      "anonymous": false,
      "inputs": [
        {
          "indexed": false,
          "internalType": "address",
          "name": "highestBidder",
          "type": "address"
        },
        {
          "indexed": false,
          "internalType": "uint256",
          "name": "highestBid",
          "type": "uint256"
        }
      ],
      "name": "logHighestBid",
      "type": "event"
    },
    {
      "inputs": [],
      "name": "auctionCancelled",
      "outputs": [
        {
          "internalType": "bool",
          "name": "",
          "type": "bool"
        }
      ],
      "stateMutability": "view",
      "type": "function"
    },
    {
      "inputs": [],
      "name": "bid",
      "outputs": [
        {
          "internalType": "bool",
          "name": "success",
          "type": "bool"
        }
      ],
      "stateMutability": "payable",
      "type": "function"
    },
    {
      "inputs": [],
      "name": "cancelAuction",
      "outputs": [
        {
          "internalType": "bool",
          "name": "success",
          "type": "bool"
        }
      ],
      "stateMutability": "nonpayable",
      "type": "function"
    },
    {
      "inputs": [],
      "name": "endTime",
      "outputs": [
        {
          "internalType": "uint256",
          "name": "",
          "type": "uint256"
        }
      ],
      "stateMutability": "view",
      "type": "function"
    },
    {
      "inputs": [
        {
          "internalType": "address",
          "name": "",
          "type": "address"
        }
      ],
      "name": "fundsByBidder",
      "outputs": [
        {
          "internalType": "uint256",
          "name": "",
          "type": "uint256"
        }
      ],
      "stateMutability": "view",
      "type": "function"
    },
    {
      "inputs": [],
      "name": "highestBid",
      "outputs": [
        {
          "internalType": "uint256",
          "name": "",
          "type": "uint256"
        }
      ],
      "stateMutability": "view",
      "type": "function"
    },
    {
      "inputs": [],
      "name": "highestBidder",
      "outputs": [
        {
          "internalType": "address",
          "name": "",
          "type": "address"
        }
      ],
      "stateMutability": "view",
      "type": "function"
    },
    {
      "inputs": [],
      "name": "minBid",
      "outputs": [
        {
          "internalType": "uint256",
          "name": "",
          "type": "uint256"
        }
      ],
      "stateMutability": "view",
      "type": "function"
    },
    {
      "inputs": [],
      "name": "owner",
      "outputs": [
        {
          "internalType": "address",
          "name": "",
          "type": "address"
        }
      ],
      "stateMutability": "view",
      "type": "function"
    },
    {
      "inputs": [],
      "name": "productURI",
      "outputs": [
        {
          "internalType": "string",
          "name": "",
          "type": "string"
        }
      ],
      "stateMutability": "view",
      "type": "function"
    },
    {
      "inputs": [],
      "name": "withdrawFund",
      "outputs": [
        {
          "internalType": "bool",
          "name": "success",
          "type": "bool"
        }
      ],
      "stateMutability": "payable",
      "type": "function"
    }
  ],
  "transactionHash": "0x4a2a6cdb791c1c9fe5e86a8699b0a91fad95e44d957c0a72054824e4184f62b3",
  "args": [
    1,
    1
  ],
  "numDeployments": 1,
  "solcInputHash": "d27b894de218e8b85c9a143f4295e502",
  "bytecode": "0x60a06040523480156200001157600080fd5b506040516200142c3803806200142c83398181016040528101906200003791906200010d565b3373ffffffffffffffffffffffffffffffffffffffff1660808173ffffffffffffffffffffffffffffffffffffffff1681525050670de0b6b3a76400008162000081919062000183565b600181905550610e108262000097919062000183565b42620000a49190620001ce565b6000819055506000600360146101000a81548160ff021916908315150217905550505062000209565b600080fd5b6000819050919050565b620000e781620000d2565b8114620000f357600080fd5b50565b6000815190506200010781620000dc565b92915050565b60008060408385031215620001275762000126620000cd565b5b60006200013785828601620000f6565b92505060206200014a85828601620000f6565b9150509250929050565b7f4e487b7100000000000000000000000000000000000000000000000000000000600052601160045260246000fd5b60006200019082620000d2565b91506200019d83620000d2565b9250828202620001ad81620000d2565b91508282048414831517620001c757620001c662000154565b5b5092915050565b6000620001db82620000d2565b9150620001e883620000d2565b925082820190508082111562000203576200020262000154565b5b92915050565b6080516111eb6200024160003960008181610309015281816105b7015281816105dd0152818161085c01526108fe01526111eb6000f3fe60806040526004361061009c5760003560e01c80638fa8b790116100645780638fa8b7901461016b57806391f9015714610196578063ce10cf80146101c1578063d57bde79146101fe578063dd58302e14610229578063e07fa3c1146102545761009c565b80631998aeef146100a15780633197cbb6146100bf5780633e109a19146100ea5780636875e8a7146101155780638da5cb5b14610140575b600080fd5b6100a9610272565b6040516100b69190610b37565b60405180910390f35b3480156100cb57600080fd5b506100d4610570565b6040516100e19190610b6b565b60405180910390f35b3480156100f657600080fd5b506100ff610576565b60405161010c9190610b6b565b60405180910390f35b34801561012157600080fd5b5061012a61057c565b6040516101379190610c16565b60405180910390f35b34801561014c57600080fd5b506101556105b5565b6040516101629190610c79565b60405180910390f35b34801561017757600080fd5b506101806105d9565b60405161018d9190610b37565b60405180910390f35b3480156101a257600080fd5b506101ab61074b565b6040516101b89190610c79565b60405180910390f35b3480156101cd57600080fd5b506101e860048036038101906101e39190610cc5565b610771565b6040516101f59190610b6b565b60405180910390f35b34801561020a57600080fd5b50610213610789565b6040516102209190610b6b565b60405180910390f35b34801561023557600080fd5b5061023e61078f565b60405161024b9190610b37565b60405180910390f35b61025c6107a2565b6040516102699190610b37565b60405180910390f35b6000805442106102b7576040517f08c379a00000000000000000000000000000000000000000000000000000000081526004016102ae90610d3e565b60405180910390fd5b600360149054906101000a900460ff1615610307576040517f08c379a00000000000000000000000000000000000000000000000000000000081526004016102fe90610daa565b60405180910390fd5b7f000000000000000000000000000000000000000000000000000000000000000073ffffffffffffffffffffffffffffffffffffffff163373ffffffffffffffffffffffffffffffffffffffff1603610395576040517f08c379a000000000000000000000000000000000000000000000000000000000815260040161038c90610e16565b60405180910390fd5b600034600460003373ffffffffffffffffffffffffffffffffffffffff1673ffffffffffffffffffffffffffffffffffffffff168152602001908152602001600020546103e29190610e65565b9050600154811015610429576040517f08c379a000000000000000000000000000000000000000000000000000000000815260040161042090610f0b565b60405180910390fd5b600254811161046d576040517f08c379a000000000000000000000000000000000000000000000000000000000815260040161046490610f77565b60405180910390fd5b8060028190555033600360006101000a81548173ffffffffffffffffffffffffffffffffffffffff021916908373ffffffffffffffffffffffffffffffffffffffff16021790555034600460003373ffffffffffffffffffffffffffffffffffffffff1673ffffffffffffffffffffffffffffffffffffffff16815260200190815260200160002060008282546105049190610e65565b925050819055507fa9504f5785a106f528e7700eca649b9deee06a0ac22d453b16fee5a6fd085bbc600360009054906101000a900473ffffffffffffffffffffffffffffffffffffffff16600254604051610560929190610f97565b60405180910390a1600191505090565b60005481565b60015481565b6040518060400160405280600e81526020017f7777772e676f6f676c652e636f6d00000000000000000000000000000000000081525081565b7f000000000000000000000000000000000000000000000000000000000000000081565b60007f000000000000000000000000000000000000000000000000000000000000000073ffffffffffffffffffffffffffffffffffffffff163373ffffffffffffffffffffffffffffffffffffffff1614610669576040517f08c379a00000000000000000000000000000000000000000000000000000000081526004016106609061100c565b60405180910390fd5b60005442106106ad576040517f08c379a00000000000000000000000000000000000000000000000000000000081526004016106a490610d3e565b60405180910390fd5b600360149054906101000a900460ff16156106fd576040517f08c379a00000000000000000000000000000000000000000000000000000000081526004016106f490610daa565b60405180910390fd5b6001600360146101000a81548160ff0219169083151502179055507fed2e453918fca3805dd5e33c2e3b76c2660384c0c1188ef03fbe809194f3ab1960405160405180910390a16001905090565b600360009054906101000a900473ffffffffffffffffffffffffffffffffffffffff1681565b60046020528060005260406000206000915090505481565b60025481565b600360149054906101000a900460ff1681565b6000600360149054906101000a900460ff1615801561080e57503373ffffffffffffffffffffffffffffffffffffffff16600360009054906101000a900473ffffffffffffffffffffffffffffffffffffffff1673ffffffffffffffffffffffffffffffffffffffff16145b1561084e576040517f08c379a000000000000000000000000000000000000000000000000000000000815260040161084590611078565b60405180910390fd5b60008080544210156108fc577f000000000000000000000000000000000000000000000000000000000000000073ffffffffffffffffffffffffffffffffffffffff163373ffffffffffffffffffffffffffffffffffffffff16036108b257600080fd5b339050600460008273ffffffffffffffffffffffffffffffffffffffff1673ffffffffffffffffffffffffffffffffffffffff1681526020019081526020016000205491506109c5565b7f000000000000000000000000000000000000000000000000000000000000000073ffffffffffffffffffffffffffffffffffffffff163373ffffffffffffffffffffffffffffffffffffffff160361097e57600360009054906101000a900473ffffffffffffffffffffffffffffffffffffffff16905060025491506109c4565b339050600460008273ffffffffffffffffffffffffffffffffffffffff1673ffffffffffffffffffffffffffffffffffffffff1681526020019081526020016000205491505b5b600082036109d257600080fd5b81600460008373ffffffffffffffffffffffffffffffffffffffff1673ffffffffffffffffffffffffffffffffffffffff1681526020019081526020016000206000828254610a219190611098565b925050819055506000808273ffffffffffffffffffffffffffffffffffffffff1684604051610a4f906110fd565b60006040518083038185875af1925050503d8060008114610a8c576040519150601f19603f3d011682016040523d82523d6000602084013e610a91565b606091505b509150915081610ad6576040517f08c379a0000000000000000000000000000000000000000000000000000000008152600401610acd9061115e565b60405180910390fd5b7f0ec497a8ae5b1ba29c60470ef651def995fac3deebbdcc56c47a4e5f51a4c2bd338486604051610b099392919061117e565b60405180910390a1600194505050505090565b60008115159050919050565b610b3181610b1c565b82525050565b6000602082019050610b4c6000830184610b28565b92915050565b6000819050919050565b610b6581610b52565b82525050565b6000602082019050610b806000830184610b5c565b92915050565b600081519050919050565b600082825260208201905092915050565b60005b83811015610bc0578082015181840152602081019050610ba5565b60008484015250505050565b6000601f19601f8301169050919050565b6000610be882610b86565b610bf28185610b91565b9350610c02818560208601610ba2565b610c0b81610bcc565b840191505092915050565b60006020820190508181036000830152610c308184610bdd565b905092915050565b600073ffffffffffffffffffffffffffffffffffffffff82169050919050565b6000610c6382610c38565b9050919050565b610c7381610c58565b82525050565b6000602082019050610c8e6000830184610c6a565b92915050565b600080fd5b610ca281610c58565b8114610cad57600080fd5b50565b600081359050610cbf81610c99565b92915050565b600060208284031215610cdb57610cda610c94565b5b6000610ce984828501610cb0565b91505092915050565b7f2041756374696f6e2068617320656e6465640000000000000000000000000000600082015250565b6000610d28601283610b91565b9150610d3382610cf2565b602082019050919050565b60006020820190508181036000830152610d5781610d1b565b9050919050565b7f2041756374696f6e20686173206265656e2063616e63656c6c65640000000000600082015250565b6000610d94601b83610b91565b9150610d9f82610d5e565b602082019050919050565b60006020820190508181036000830152610dc381610d87565b9050919050565b7f4f776e6572206e6f7420616c6c6f776564200000000000000000000000000000600082015250565b6000610e00601283610b91565b9150610e0b82610dca565b602082019050919050565b60006020820190508181036000830152610e2f81610df3565b9050919050565b7f4e487b7100000000000000000000000000000000000000000000000000000000600052601160045260246000fd5b6000610e7082610b52565b9150610e7b83610b52565b9250828201905080821115610e9357610e92610e36565b5b92915050565b7f42696464696e67206c657373207468616e206d696e696d756d2062696420697360008201527f206e6f7420616c6c6f7765640000000000000000000000000000000000000000602082015250565b6000610ef5602c83610b91565b9150610f0082610e99565b604082019050919050565b60006020820190508181036000830152610f2481610ee8565b9050919050565b7f426964206973206c657373207468616e20686967686573742062696400000000600082015250565b6000610f61601c83610b91565b9150610f6c82610f2b565b602082019050919050565b60006020820190508181036000830152610f9081610f54565b9050919050565b6000604082019050610fac6000830185610c6a565b610fb96020830184610b5c565b9392505050565b7f4f6e6c79206f776e657220697320616c6c6f7765640000000000000000000000600082015250565b6000610ff6601583610b91565b915061100182610fc0565b602082019050919050565b6000602082019050818103600083015261102581610fe9565b9050919050565b7f4869676865737420626964646572206973206e6f7420616c6c6f776564000000600082015250565b6000611062601d83610b91565b915061106d8261102c565b602082019050919050565b6000602082019050818103600083015261109181611055565b9050919050565b60006110a382610b52565b91506110ae83610b52565b92508282039050818111156110c6576110c5610e36565b5b92915050565b600081905092915050565b50565b60006110e76000836110cc565b91506110f2826110d7565b600082019050919050565b6000611108826110da565b9150819050919050565b7f4661696c656420746f2073656e64204574686572000000000000000000000000600082015250565b6000611148601483610b91565b915061115382611112565b602082019050919050565b600060208201905081810360008301526111778161113b565b9050919050565b60006060820190506111936000830186610c6a565b6111a06020830185610c6a565b6111ad6040830184610b5c565b94935050505056fea2646970667358221220e31d992a61a94a7d9df6cae67e89b702798e9d4537c4e53bf335417f4ebcd35064736f6c63430008110033",
  "devdoc": {
    "kind": "dev",
    "methods": {},
    "version": 1
  },
  "userdoc": {
    "kind": "user",
    "methods": {},
    "version": 1
  },
  "storageLayout": {
    "storage": [
      {
        "astId": 8,
        "contract": "contracts/Auction.sol:Auction",
        "label": "endTime",
        "offset": 0,
        "slot": "0",
        "type": "t_uint256"
      },
      {
        "astId": 10,
        "contract": "contracts/Auction.sol:Auction",
        "label": "minBid",
        "offset": 0,
        "slot": "1",
        "type": "t_uint256"
      },
      {
        "astId": 12,
        "contract": "contracts/Auction.sol:Auction",
        "label": "highestBid",
        "offset": 0,
        "slot": "2",
        "type": "t_uint256"
      },
      {
        "astId": 14,
        "contract": "contracts/Auction.sol:Auction",
        "label": "highestBidder",
        "offset": 0,
        "slot": "3",
        "type": "t_address"
      },
      {
        "astId": 16,
        "contract": "contracts/Auction.sol:Auction",
        "label": "auctionCancelled",
        "offset": 20,
        "slot": "3",
        "type": "t_bool"
      },
      {
        "astId": 20,
        "contract": "contracts/Auction.sol:Auction",
        "label": "fundsByBidder",
        "offset": 0,
        "slot": "4",
        "type": "t_mapping(t_address,t_uint256)"
      }
    ],
    "types": {
      "t_address": {
        "encoding": "inplace",
        "label": "address",
        "numberOfBytes": "20"
      },
      "t_bool": {
        "encoding": "inplace",
        "label": "bool",
        "numberOfBytes": "1"
      },
      "t_mapping(t_address,t_uint256)": {
        "encoding": "mapping",
        "key": "t_address",
        "label": "mapping(address => uint256)",
        "numberOfBytes": "32",
        "value": "t_uint256"
      },
      "t_uint256": {
        "encoding": "inplace",
        "label": "uint256",
        "numberOfBytes": "32"
      }
    }
  }
}